:04000000AEEF0DF062
:1000080000C01EF001C01DF002C01CF003C01BF0B0
:1000180004C01AF005C019F006C018F008C017F09F
:1000280009C016F00AC015F0E1CF27F0E2CF28F09A
:10003800E9CF25F0EACF26F0F3CF23F0F4CF24F070
:10004800F5CF22F0F8CF1FF0F7CF20F0F6CF21F050
:1000580046EC0CF0F29222C0F5FF1FC0F8FF20C05A
:10006800F7FF21C0F6FF23C0F3FF24C0F4FF1EC032
:1000780000F01DC001F01CC002F01BC003F01AC044
:1000880004F019C005F018C006F017C008F016C033
:1000980009F015C00AF025C0E9FF26C0EAFF27C00D
:0800A800E1FF28C0E2FF110096
:1000B000F9C1D6F1FAC1D7F1FBC1DAF1FCC1DBF12C
:1000C000800E0101FD11006E008000C0D9F1120008
:1000D000000E056E040E066EF9C103F0000E046EEC
:1000E000033604360390033604360390FAC100F059
:1000F000000E016E003601360090005003260150BC
:10010000042203C001F004C002F00136019002365F
:1001100001360190023601C003F002C004F004323F
:100120000332049E04BC048E04320332049E04BCD9
:10013000048E03C000F004C001F0003600900136C8
:10014000003600900136055000260650012200C0FE
:1001500005F001C006F000C0E1FF01C0E2FFE69E2D
:100160000101FA51000A12E1F9C100F0000E016E1E
:10017000003600900136B80E0024E16E010E012019
:10018000E26E05C0E6FF06C0E6FF11D0F9C100F03F
:10019000000E016E003600900136BC0E0024E16EA8
:1001A000010E0120E26E05C0E6FF06C0E6FF05C0B5
:1001B000E1FF06C0E2FFE69C040E0524E16E000E9E
:0801C0000620E26EE68C12003D
:0E01C800800E0101F911006E00C0D9F1120085
:1001D600F9C1D6F1FAC1D7F1FBC1D8F1FCC1DAF108
:1001E600FDC1DBF1800E0101FE11006E00C0D9F1E8
:0201F6001200F5
:1001F80020C401F01F0E01160150010A01E08BD046
:1002080004012451000A01E086D02151060A38E190
:100218002DD00101C351010A12E14F0EF96F1D0ED5
:10022800FA6F000EFB6F120EF927000EFA23FB235C
:10023800090EFC6F000EFD6F400EFE6FC8DF20D068
:100248000101C351010A0DE1780EF96F1D0EFA6F15
:10025800000EFB6F210EFC6F000EFD6F400EFE6F4F
:10026800B6DF0ED00101F96BABDF0AD004012351D0
:10027800210ACFE02351220AE3E02351230AF2E0C6
:1002880020C401F0600E0116050E006E005004E057
:100298000132019EFF0FFBD70150010A01E03BD05C
:1002A80027D039D038D0A20E0101F96F010EFA6FAC
:1002B800010EFB6F000EFC6F400EFD6FF5DE2BD0BC
:1002C8000101F96B7DDF23C4A2F125D00101A30E42
:1002D800F96F010EFA6F010EFB6F000EFC6FFD6BDC
:1002E800E3DE19D00101F96B6BDF22C4A3F113D04F
:1002F80004012151010AD5E02151090AD3E0215115
:10030800020AD1E021510A0ADBE02151030ADEE0AA
:0803180021510B0AE7E012007D
:100320000101F551000A12E0F4C100F0000E016E67
:10033000003600900136BC0E0024E96E010E01204B
:10034000EA6EEECF04F0EECF05F011D0F4C100F06C
:10035000000E016E003600900136B80E0024E96EE2
:10036000010E0120EA6EEECF04F0EECF05F0020E92
:100370000424E16E000E0520E26EF6C1E6FFF7C12F
:10038000E6FF010E0424E16E000E0520E26EF8C1C6
:10039000E6FF04C0E9FF05C0EAFFEECF00F004C0AD
:1003A000E1FF05C0E2FF400E0014E66E04C0E9FF65
:1003B00005C0EAFFEECF00F004C0E1FF05C0E2FF98
:1003C000880E0010E66EF551000A1BE0F4C100F043
:1003D000000E016E003600900136BC0E0024026E45
:1003E000010E0120036E02C0E9FF03C0EAFF040E04
:1003F000EE18006E02C0E1FF03C0E2FF00C0E6FF9E
:100400001AD0F4C100F0000E016E003600900136E3
:10041000B80E0024026E010E0120036E02C0E9FF37
:1004200003C0EAFF040EEE18006E02C0E1FF03C035
:10043000E2FF00C0E6FF04C000F005C001F01200BA
:10044000700EE16E0F0EE26E0101F451E126D8B09C
:10045000E22AF5C1E6FFF5A504D0F4C1F9F1FA6B83
:1004600037DEF5A305D0F4C1F9F1010EFA6F30DEE5
:02047000120078
:100472000101C25314E0010EF46F1E0EF56FDFDFAF
:10048200010EF46FF56BD3C1F6F1D4C1F7F1400E52
:10049200F86F45DF00C0C0F101C0C1F113D0010EF9
:1004A200F46F1E0EF56FCBDF010EF46FF56BD3C147
:1004B200F6F1D4C1F7F1400EF86F31DF00C0C0F1A0
:0604C20001C0C1F11200AF
:0A04C8000101C25301E094DE1200AE
:1004D2000B6A0A6A096A00500402F4CF09F0F3CFEA
:1004E20008F001500502F4CF0BF0F3CF0AF00050F0
:1004F2000502F3500926F4500A22E86A0B22015041
:100502000402F3500926F4500A22E86A0B2208C0BA
:1005120000F009C001F00AC002F00BC003F01200A3
:10052200EEC102F0EFC103F0F1C100F0F2C101F03F
:10053200010E0101F15F000EF25B0050011009E0B3
:1005420002C0E1FF03C0E2FFF0C1E6FF024A032A54
:04055200EBD71200D1
:100556000CD08CDF3CD03BD0B4DF39D038D037D08C
:1005660036D035D0000033D032D0000E0101EF195D
:1005760002E1010EEE19EDE0000EEF1902E1020EA6
:10058600EE19E9E0000EEF1902E1030EEE19E4E0C0
:10059600EF51000A02E1730EEE19E0E0EF51000A96
:1005A60002E1750EEE19DBE0EF51000A02E1740E6E
:1005B600EE19D6E0EF513F0A02E1FF0EEE19D1E047
:1005C600EF51000A02E1720EEE19CCE0CDD7010E12
:0405D600006E1200A1
:1005DA0004012251010A13E120C401F01F0E011681
:1005EA000150000A0CE10101D98F04012151030ACB
:1005FA0004E1010E0101C46F02D00101C46B0401C0
:10060A002251000AD8A48DD020C401F01F0E011671
:10061A000150020AD8A485D024C401F00F0E011695
:10062A000150000AD8B47DD00101D98F040124BF3A
:10063A0016D024C403F00F0E031603C000F0000EF8
:10064A00016E003600900136B80E0024E96E010EE4
:10065A000120EA6EEECF04F0EECF05F015D024C4E7
:10066A0003F00F0E031603C000F0000E016E0036F1
:10067A0000900136BC0E0024E96E010E0120EA6EDC
:10068A00EECF04F0EECF05F02151030A07E104C0D2
:10069A00E1FF05C0E2FF840EE66E43D024C400F0F9
:1006AA000F0E0016700E026E0F0E036E0050022619
:1006BA00D8B0032A02C0E9FF03C0EAFFFE0EEE1417
:1006CA00006EEECF01F0FF0E011602C0E1FF03C07B
:1006DA00E2FF00C0E6FF01C0E6FF24AF11D004C06C
:1006EA00E1FF05C0E2FFE66A040E0418006E00C0CE
:1006FA0004F004C0E1FF05C0E2FF400EE66E11D02F
:10070A0004C0E1FF05C0E2FF880EE66E040E04187D
:10071A00006E00C004F004C0E1FF05C0E2FFC80E8D
:04072A00E66E120065
:10072E0004012051800AD8A478D0C00E0101D96FDF
:10073E0069D00101B90E006E1D0E016E000E026E23
:10074E0000C0D6F101C0D7F102C0D8F1120EDA6F97
:10075E00000EDB6F62D00101030E006E000E016E03
:10076E0022C404F0000E056EADDED00E0024E96E3C
:10077E00010E0120EA6EEECFD6F1EECFD7F1EECF1D
:10078E00D8F1020ED625F66E000ED721F76E000EAA
:10079E00D821F86E0900F5CF00F00900F5CF01F071
:1007AE0000C0DAF101C0DBF138D0040122510101A1
:1007BE00B75D23E3030E006E000E016E22C404F03B
:1007CE00000E056E7FDEC70E0024E96E010E0120BD
:1007DE00EA6EEECFD6F1EECFD7F1EECFD8F1D6C18D
:1007EE00F6FFD7C1F7FFD8C1F8FF0900F5CF00F02B
:1007FE0000C0DAF1000EDB6F01D0D96B0ED0010113
:10080E00D96B0BD004012351010A93E02351020A44
:0C081E00A2E02351030AC9E0F2D7120047
:10082A000101D98F710EEE6F0F0EEF6FF06B010E93
:10083A00F16F000EF26F70DED50EEE6F010EEF6FE4
:10084A00F06B010EF16F000EF26F66DE22C4C3F187
:10085A00C351000A03E1100EB66F0FD0200EB66F17
:10086A00010EEE6F000EEF6FC30EF06F010EF16F07
:0C087A00010EF26F000EF36F69DE120039
:100886000401286B296B4AD00101D98F0401288104
:100896000101C451010A02E10401288354D0010177
:1008A600D98F51D00101D98F040124BF16D024C499
:1008B60003F00F0E031603C000F0000E016E0036A3
:1008C60000900136B80E0024E96E010E0120EA6E92
:1008D600EECF04F0EECF05F015D024C403F00F0ED2
:1008E600031603C000F0000E016E003600900136BC
:1008F600BC0E0024E96E010E0120EA6EEECF04F074
:10090600EECF05F004C0E9FF05C0EAFFEECF01F027
:1009160001A403D00401010E286F15D020C401F0F4
:100926001F0E01160150000AAFE020C401F01F0E91
:1009360001160150010AB3E020C401F01F0E011692
:100946000150020AAFE00101D9AF07D0280ED66FD9
:0C095600040ED76FD981020EDA6F120078
:10096200000E0101DB5D02E1080EDA5D10E2DAC180
:1009720003F0DBC104F0A151000A03E1010EA16FF3
:1009820005D0A151010A02E1020EA16F04D0080EA6
:10099200036E000E046EBCC1E1FFBDC1E2FFE69230
:1009A200BCC1E1FFBDC1E2FFE690BCC1E9FFBDC130
:1009B200EAFFEECF00F0BCC1E1FFBDC1E2FF04508F
:1009C2000010E66E010EBC25E16E000EBD21E26E46
:1009D20003C0E6FF0350DA5D006E0450DB59016E7E
:1009E20000C0DAF101C0DBF1280EC56F040EC66F3C
:1009F200D9B12FD0035004102BE0D6C1F6FFD7C1D6
:100A0200F7FFD8C1F8FF0900F5CF00F0C5C1E1FF3B
:100A1200C6C1E2FF00C0E6FFC54BC62B010ED625BC
:100A2200006E000ED721016E000ED821026E00C0AA
:100A3200D6F101C0D7F102C0D8F1010E035C006EFD
:100A4200000E0458016E00C003F001C004F0D2D7BA
:100A520024D00350041021E0D6C1E9FFD7C1EAFF38
:100A6200C5C1E1FFC6C1E2FFEECFE6FFC54BC62B13
:100A7200010ED625006E000ED721016E00C0D6F100
:100A820001C0D7F1010E035C006E000E0458016E26
:0C0A920000C003F001C004F0DCD712002B
:100A9E006D980101D9BF49D0AFAF28D0020E9E6F1D
:100AAE00010EBC25E16E000EBD21E26EE66ABCC1F0
:100ABE00E1FFBDC1E2FFC80EE66E010EA625E16E96
:100ACE00000EA721E26E080EE66E020EA625E16E5E
:100ADE00000EA721E26E280EE66E040EE66EA6C18B
:100AEE00E1FFA7C1E2FFC80EE66E1ED0010EA625DD
:100AFE00E16E000EA721E26E080EE66E020EA6252E
:100B0E00E16E000EA721E26E200EE66E040EE66E7A
:100B1E00A6C1E1FFA7C1E2FF8C0EE66EBCC1E1FFEC
:100B2E00BDC1E2FF840EE66E82D0AFBF80D004015D
:100B3E0020AF55D00101DB510401275D04E1010115
:100B4E00DA510401265D04E226C4DAF127C4DBF192
:100B5E0001DF010E9E6F010EA625E16E000EA7218C
:100B6E00E26E080EE66E020EA625E16E000EA721BD
:100B7E00E26E200EE66E040EE66EA6C1E1FFA7C180
:100B8E00E2FF800EE66E9F6B010EA425E16E000E55
:100B9E00A521E26E080EE66E020EA425E16E000E91
:100BAE00A521E26E200EE66E040EE66EA4C1E1FFF4
:100BBE00A5C1E2FF840EE66E010E9F6F020EBC25EC
:100BCE00E16E000EBD21E26E280EE66E040EE66E9C
:100BDE00BCC1E1FFBDC1E2FFC80EE66E28D0010127
:100BEE00020E9E6F010EBC25E16E000EBD21E26E5F
:100BFE00E66ABCC1E1FFBDC1E2FFC80EE66E010EA2
:100C0E00A625E16E000EA721E26E080EE66E020E1C
:100C1E00A625E16E000EA721E26E280EE66E040EEA
:100C2E00E66EA6C1E1FFA7C1E2FFC80EE66E120096
:100C3E00010E0101A425E96E000EA521EA6EEECF8C
:100C4E0000F000C002F0000EB15D02E10250B05D96
:100C5E0003E2B0C102F00AD00250B05D006E000E89
:100C6E00B159016E00C0B0F101C0B1F1036A02507A
:100C7E00035C1CE2280EE96E040EEA6E0350E926B0
:100C8E00D8B0EA2AEECF00F0ADC1E1FFAEC1E2FF6F
:100C9E0000C0E6FF010EAD25006E000EAE21016E06
:100CAE0000C0ADF101C0AEF1032AE1D7000E006E17
:100CBE00B151005C02E1B051000828E2010EA625F8
:100CCE00E16E000EA721E26E080EE66E020EA6255C
:100CDE00E16E000EA721E26E280EE66E040EE66EA1
:100CEE00A4C1E9FFA5C1EAFFEECF00F000BC07D01A
:100CFE00A6C1E1FFA7C1E2FFC80EE66E06D0A6C1EF
:100D0E00E1FFA7C1E2FF880EE66E19D0010EA625FF
:100D1E00E16E000EA721E26E080EE66E020EA6250B
:100D2E00E16E000EA721E26E200EE66E040EE66E58
:100D3E00A6C1E1FFA7C1E2FF840EE66EAF9F1200CF
:100D4E0001019E6BBCC1E1FFBDC1E2FFE66A040E6C
:100D5E00BC19E16EBDC1E2FF000EE21AE66AAFAF4A
:060D6E0001D0AF9F12004E
:100D740020C401F0600E0116050E006E005004E060
:100D84000132019EFF0FFBD70150000A01E069D038
:100D940045D00101D98F080EB66F63D0C6DC61D08F
:100DA40042DD5FD0C30E0101D66F010ED76FD9812A
:100DB400010EDA6FD98F55D064DD53D00CDC51D0DD
:100DC400D50E006E010E016E040124510026D8B028
:100DD400012A00C0D6F101C0D7F10101D981010E69
:100DE400DA6FD98F3ED00101D98FD50EE16E010E95
:100DF400E26E04012451E126D8B0E22A22C4E6FFBF
:100E040030D0020E0101EE6F000EEF6FF06BF16B4C
:100E1400F26BF36BABEC02F024D023D0040121512C
:100E2400050AB7E02151060AB9E02151090AB8E0E0
:100E34002151080AB7E02151000ABEE02151010AFC
:100E4400BDE02151030ABAE021510A0AB9E0215157
:100E54000B0AC9E02151070AD4E021510C0ADDE054
:040E6400DCD71200C5
:100E680001019E51020A02E1E6DE1ED06CDF9F51AD
:100E7800000A19E1010EA625E16E000EA721E26E17
:100E8800080EE66E020EA625E16E000EA721E26EA0
:100E9800200EE66E040EE66EA6C1E1FFA7C1E2FFD2
:0A0EA8008C0EE66E01D09F6B120065
:100EB200BCC1E9FFBDC1EAFFEECF00F000AE05D034
:100EC200BCC1E1FFBDC1E2FFE66A0101A16B9E6BFD
:100ED200DA6BDB6BD96B4DDF030E0101EE6F000E97
:100EE200EF6FF06BF16BF26BF36BABEC02F0D6DDF4
:020EF2001200EC
:100EF400BCC1E9FFBDC1EAFFEECF00F0000E00BCAB
:100F0400010E0101ED6F040EBC19006E00C0BCF1AE
:100F1400B651080A0AE122C46EFF6E50000803E2CB
:100F2400100EB66F02D0040EB66F9E51010A26E170
:100F3400020EBC25E16E000EBD21E26E280EE66EA7
:100F4400040EE66E0CDDA151020A07E1BCC1E1FF0B
:100F5400BDC1E2FF840EE66E10D0ED51000A07E138
:100F6400BCC1E1FFBDC1E2FFC80EE66E06D0BCC144
:100F7400E1FFBDC1E2FF880EE66E01D0E6DE12009D
:0E0F8400160E6F6E9F0E6B6E7B0E696E120066
:100F9200E5C102F0E6C103F0E8C100F0E9C101F0E9
:100FA200010E0101E85F000EE95B0050011009E04B
:100FB20002C0E1FF03C0E2FFE7C1E6FF024A032AE3
:040FC200EBD7120057
:0A0FC600D08EA28AA08AF28E1200DB
:100FD000B90E006E1D0E016E000E026E0E0E002484
:100FE000F66E000E0120F76E000E0220F86E09006A
:100FF000F5CF03F003C004F00F0E0024F66E000ED0
:101000000120F76E000E0220F86E0900F5CF01F006
:101010000150035C12E2B90E006E1D0E016E000E4F
:10102000026E0F0E0024F66E000E0120F76E000E09
:101030000220F86E0900F5CF04F0B90E006E1D0E07
:10104000016E000E026E100E0024F66E000E0120DE
:10105000F76E000E0220F86E0900F5CF01F0015086
:10106000045C12E2B90E006E1D0E016E000E026EDF
:10107000100E0024F66E000E0120F76E000E022006
:0E108000F86E0900F5CF04F004C000F0120075
:10108E000101E86BE96BEA6B020EE525F66E000EC8
:10109E00E621F76E000EE721F86E0900F5CF05F098
:1010AE00030EE525F66E000EE621F76E000EE72123
:1010BE00F86E0900F5CF00F000C003F0000E046ECC
:1010CE0003C001F0006A05500024066E000E0120D8
:1010DE00076EE5C108F0E6C109F0E7C10AF0010E9E
:1010EE000824F66E000E0920F76E000E0A20F86E28
:1010FE000900F5CF01F00150020A1BE1060E08248B
:10110E00F66E000E0920F76E000E0A20F86E09002A
:10111E00F5CF01F00150E85D0CE2060E0824F66EE4
:10112E00000E0920F76E000E0A20F86E0900F5CFAA
:10113E00E8F1010E0824F66E000E0920F76E000E7F
:10114E000A20F86E0900F5CF01F00150040A1BE1E8
:10115E00080E0824F66E000E0920F76E000E0A2007
:10116E00F86E0900F5CF01F00150E85D0CE2080EB3
:10117E000824F66E000E0920F76E000E0A20F86E97
:10118E000900F5CFE8F108C0F6FF09C0F7FF0AC065
:10119E00F8FF0900F5CF00F00050E925016E000EB2
:1011AE00EA21026E01C0E9F102C0EAF10750025CC9
:1011BE0002E10650015C01E30FD008C0F6FF09C042
:1011CE00F7FF0AC0F8FF0900F5CF00F0005008261F
:0E11DE00000E09220A2283D7E8C100F0120099
:1011EC004F0E0101D06F1D0ED16F000ED26FD70EB6
:1011FC00C76F1D0EC86F000EC96FCB0ECA6F1D0EC8
:10120C00CB6F000ECC6F990ECD6F1D0ECE6F000EF6
:04121C00CF6F12007E
:10122000000E0101E61902E1000EE51902E1016A72
:1012300009D0E5C1E9FFE6C1EAFFEECF00F0016A9F
:0A12400000BE012A01C000F01200F8
:10124A000101E651000A12E0E5C100F0000E016E4C
:10125A00003600900136BC0E0024E96E010E012012
:10126A00EA6EEECF04F0EECF05F011D0E5C100F042
:10127A00000E016E003600900136B80E0024E96EA9
:10128A00010E0120EA6EEECF04F0EECF05F0020E59
:10129A000424E16E000E0520E26EE7C1E6FFE8C114
:1012AA00E6FF010E0424E16E000E0520E26EE9C19C
:1012BA00E6FF04C0E9FF05C0EAFFEECF00F004C074
:1012CA00E1FF05C0E2FF400E0014E66E04C0E9FF2C
:1012DA0005C0EAFFEECF00F004C0E1FF05C0E2FF5F
:1012EA00880E0010E66EE651000A1BE0E5C100F028
:1012FA00000E016E003600900136BC0E0024026E0C
:10130A00010E0120036E02C0E9FF03C0EAFF040ECA
:10131A00EE18006E02C0E1FF03C0E2FF00C0E6FF64
:10132A001AD0E5C100F0000E016E003600900136B9
:10133A00B80E0024026E010E0120036E02C0E9FFFE
:10134A0003C0EAFF040EEE18006E02C0E1FF03C0FC
:10135A00E2FF00C0E6FF04C000F005C001F0120081
:10136A000101B651000A0AE16D6A696A06DE26DEE3
:0E137A006DB602D06D86FCD7010EB66F120064
:04138800A19A120014
:10138C00200E0101B65D03E36DB201D002D0006AFC
:10139C0023D0C0C1E5F1C1C1E6F13CDF00521BE135
:1013AC00010EC025E96E000EC121EA6EEECF00F0F1
:1013BC0000C0E4F1E3C1E5F1E66BE0C1E7F1E1C1A6
:1013CC00E8F1E2C1E9F13BDF00C0C0F101C0C1F1BD
:0A13DC00E4C100F001D0006A120025
:1013E60002DFC06BC16BA86BA96B6A6A686AC7DD4E
:1013F6006D8C6E6A710EE56F0F0EE66FE76B010E70
:10140600E86F000EE96FC2DD6D9CE06B080EE05DD3
:1014160016E2E0C100F0000E016E003600900136C3
:10142600003600900136000E0024E16E040E012005
:10143600E26EE66AE66AE66AE66AE02BE7D7160E29
:10144600706E68A603D0F70E6816FBD7D96BAF6B24
:10145600B06BB16B6D98080EBC6F040EBD6FC36B9D
:04146600B66B12004F
:10146A00B2DD00C0E0F14F0E0101E56F1D0EE66F1F
:10147A00000EE76F07DE00C0E1F1E051005C03E215
:0C148A00E0C100F002D0E1C100F012004F
:101496006984EF0E68166D82750E0101EE6F000EFF
:1014A600EF6FF06BF16BF26BF36BABEC02F01200CB
:1014B60070A019D0A4C1E9FFA5C1EAFFEECF01F0E3
:1014C6000150800A0FE1BCC1E9FFBDC1EAFFEECFC2
:1014D60001F00150840A06E1A4C1E1FFA5C1E2FFC3
:0C14E6008C0EE66E7090DF0E681612008F
:1014F200FD0E0101AC15016E026AFF0E0216000E0E
:10150200021802E1000E01186BE17E0EAC15016EAD
:1015120001C003F00332039E03C000F0000E016E0F
:10152200003600900136003600900136000E00248D
:10153200026E040E0120036E02C0A4F103C0A5F1E5
:1015420002C0A6F103C0A7F1040EA619006E00C0E6
:10155200A6F102C0E9FF03C0EAFFEECF00F000C02F
:1015620001F03C0E01160132019E0132019E015032
:101572000D0A34E1020EA425E96E000EA521EA6EE1
:10158200EECF01F0EECF02F00250040A02E1280E83
:10159200011822E1020EA425E16E000EA521E26EE1
:1015A200200EE66E040EE66EEC6B080EEC5D14E2A5
:1015B200200EE16E040EE26EEC51E126D8B0E22A72
:1015C200280EE96E040EEA6EEC51E926D8B0EA2A3A
:1015D200EECFE6FFEC2BE9D76BDC01D044DC0DD07B
:1015E200FD0EAC15016E026AFF0E0216000E021805
:0C15F20002E1040E011801E17CDC120093
:1015FE00740E0101EE6F000EEF6FF06BF16BF26B7C
:10160E00F36BABEC02F06D92699468A403D0FB0E01
:06161E006816FBD7120064
:10162400E3DDC06BC16BA86BA96B6A6A686AA8DC4E
:101634006D8C6E6A710EEE6F0F0EEF6FF06B010E14
:10164400F16F000EF26F91EC02F06D9CEC6B080EE2
:10165400EC5D16E2ECC100F0000E016E0036009065
:101664000136003600900136000E0024E16E040EAF
:101674000120E26EE66AE66AE66AE66AEC2BE7D7E0
:10168400160E706E68A603D0F70E6816FBD7D96BDA
:10169400AF6BB06BB16B6D98080EBC6F040EBD6F71
:0616A400C36BB66B1200DF
:1016AA00DFDE00C0B7F1010EC26FDCC1D3F1DDC1CC
:1016BA00D4F1DEC1AAF1DFC1ABF190DE010E016EF9
:0A16CA000150010A01E14CDE12009C
:0E16D400F28ED09EF19EF18CF288F28A120006
:1016E2000900F5CFE6FF0006FBE10106F9E1120071
:1016F2000F0EC16E926A010E936E946A956AFF0E86
:0C170200966E806A816A826A836A120017
:10170E000101DC6B010EDD6FDE6BA093A0A7ABD0E9
:10171E00A097970EE96E010EEA6E3F50E926D8B0FB
:10172E00EA2AEECF02F03EC001F002C000F00150F6
:10173E0004E00032009EFF0FFBD7010E001600B032
:10174E0002D0A09501D0A0853D50DC1905E0120E07
:10175E003D5C02E2DC2BF8D73F50DD1905E0080EA8
:10176E003F5C02E2DD2BF8D7DDC102F002360290BB
:10177E0002C0DEF1DCC100F00036009000360090B1
:10178E000036009000360090100E00160050021227
:10179E0002C0DEF1400EE96E000EEA6EDC51E92663
:1017AE00D8B0EA2AEECF01F0050E006E01C0DEF1D0
:1017BE00005004E0DE37DE91FF0FFBD70250DE1340
:1017CE00A0B504D08396BF0EDE1702D08386DE8DC1
:1017DE00DEC181FFA0A102D0839801D08388180EAC
:1017EE008314016E070E3E14006E00500110836EBE
:1017FE003C503B1802E1A09701D0A087806A070EEB
:10180E000C6E7D0E0D6E0D2EFED70C2EFCD7290EF6
:10181E00E96E000EEA6E3D50E926D8B0EA2AEECF08
:10182E0080FF070E0C6E7D0E0D6E0D2EFED70C2E4C
:10183E00FCD7806A3E2A3E50080A15E13F2A3E6ACE
:10184E003F50070A10E13F6AA093070E9527000E3E
:10185E0096233D2A934B942BA0873D50120A03E109
:08186E00A071020E3D6E120094
:10187600D3C1E0F1D4C1E1F1400E0101E26F010EE6
:06188600E36F81DD12009A
:10188C000101B651010A07E16DBA05D0686A698099
:10189C006988020EB66F68A405D069A403D0FB0E4C
:1018AC006816A7DE6DA202D069DD77D068A018D0CB
:1018BC0069A016D0B1DE040EB66F200E0401026FC3
:1018CC00040E036F080E016F000E0015006E00C0B1
:1018DC0000F48C0E0011006E00C000F4FE0E6816B1
:1018EC0068A805D069A803D0D0DDEF0E681668ACE7
:1018FC0011D069AC0FD0730E0101EE6F000EEF6FBB
:10190C00F06BF16B010EF26F000EF36FABEC02F0AB
:10191C00BF0E681668AA03D069AA01D0C6DD68A2FA
:10192C0010D069A20ED0FF0E0101EE6F3F0EEF6FCB
:10193C00F06BF16B010EF26F000EF36FABEC02F07B
:10194C006A6A040E0101B65D02E218DD26D069A6B2
:10195C0023D0EB6B040EEB5D1FE268A619D06CCFA5
:10196C00ACF1F70E6816780EAC15016E0150000A3A
:10197C0002E1B9DD0CD0720EEE6F000EEF6FAC0E03
:10198C00F06F010EF16FF26BF36BABEC02F001D068
:0C199C0003D00101EB2BDED7F1DC1200C0
:1019A8000101DC6B010EDD6FDE6BA093A0A7ABD04D
:1019B800A097970EE96E010EEA6E3F50E926D8B05F
:1019C800EA2AEECF02F03EC001F002C000F001505A
:1019D80004E00032009EFF0FFBD7010E001600B096
:1019E80002D0A09501D0A0853D50DC1905E0120E6B
:1019F8003D5C02E2DC2BF8D73F50DD1905E0080E0C
:101A08003F5C02E2DD2BF8D7DDC102F0023602901E
:101A180002C0DEF1DCC100F0003600900036009014
:101A28000036009000360090100E0016005002128A
:101A380002C0DEF1400EE96E000EEA6EDC51E926C6
:101A4800D8B0EA2AEECF01F0050E006E01C0DEF133
:101A5800005004E0DE37DE91FF0FFBD70250DE13A3
:101A6800A0A504D08396BF0EDE1702D08386DE8D34
:101A7800DEC181FFA0A102D0839801D08388180E0F
:101A88008314016E070E3E14006E00500110836E21
:101A98003C503B1802E1A09701D0A087806A070E4E
:101AA8000C6E7D0E0D6E0D2EFED70C2EFCD7290E5A
:101AB800E96E000EEA6E3D50E926D8B0EA2AEECF6C
:101AC80080FF070E0C6E7D0E0D6E0D2EFED70C2EB0
:101AD800FCD7806A3E2A3E50080A15E13F2A3E6A32
:101AE8003F50070A10E13F6AA093070E9527000EA2
:101AF80096233D2A934B942BA0873D50110A03E16E
:081B0800A071020E3D6E1200F7
:101B1000026A036A800E0318006E800E005C02E108
:101B2000070E025C18E2970E0224E16E010E0320FC
:101B3000E26E025001019525006E03509621016E60
:101B4000560E0024E96E000E0120EA6EEECFE6FF8D
:0C1B5000024A032ADFD70101A083120023
:101B5C00EEEC0EF00101A093A087A095A091C3DD3F
:101B6C00B3DD000EDC6F050EDD6F400EDE6F050E73
:101B7C00DF6F95DD829C79DE00C053F0005206E0E9
:101B8C00828C00C552F001C555F0542A000E945DAC
:101B9C0002E15450935D18E2300E525C006E00C0AE
:101BAC003CF0070E0002F3CF95F1F4CF96F1AADFCB
:101BBC00A0A304D055506E0A01E1F0DEA0A304D01E
:0E1BCC005550730A01E19DDD828ED4D7FFD7FC
:101DDC0010EE29F0750E006E020E016EDA0EF66E24
:0E1DEC001B0EF76E000EF86E71EC0BF012007D
:101BDA0001010202020204040404080808081010A1
:021BEA001010D9
:011BEC002ECA
:011BED0000F7
:011BEE0002F4
:011BEF0000F5
:011BF00000F4
:101BF10000000000010100000101000001010000DE
:021C01000101DF
:011C030000E0
:011C040000DF
:011C050000DE
:011C060000DD
:101C0700007CFE82FE7C000040FEFE0000000046D5
:101C1700CE9AF262000044C692FE6C00001878FE6D
:101C2700FE080000F4F6A2BE9C00007CFE92DE4C8B
:101C37000000808EBEF0C000006CFE92FE6C0000BB
:101C470064F692FE7C00009000000000000002167F
:101C57000000000000081422000000001414140003
:101C670000000022140800000000408A90C0000015
:101C7700F08499A5B98588000638C8C8380600FEDB
:101C8700929292FE6C00FE82828282C600FE82825F
:101C970082FE7C00FEFE9292928200FEFE90909061
:101CA70080007CFE829296DE00FEFE1010FEFE0093
:101CB7000000FEFE0000000C0E02FEFC0000FEFE0F
:101CC700386CC68200FEFE0202020000FEF03C0CE9
:101CD7003CF000FEFEF03C0EFE007CFE828282FE9F
:101CE70000FEFE9090F06000FE828A8EFE7C00FE71
:101CF700FE909090FE0064F69292DE4C008080FE8B
:101D0700FE808000FCFE0202FEFC00C0F83E3EF8AA
:101D1700C000C03806180638C000C6EE3838EEC610
:101D270000C0E03E3EE0C000868E9AB2E2C20000EC
:0D1D3700000000000000FAFA0000000000AB
:021D440000009D
:021D460000009B
:071D48000000000000000094
:101D4F00090229000101008032090400000203008A
:101D5F000000092101010001222100070581034034
:091D6F0000010705010340000119
:101D78000600FF0901A10119012940150026FF00ED
:101D8800750895408102190129407508954091020E
:011D9800C08A
:101D99002003550053004200200048004900440038
:101DA900200046004F005200200046004400440035
:101DB90012010002000000083412010001000102B2
:021DC900000117
:0C1DCB000C03430055004A004100450095
:041DD70004030904F4
:020000040030CA
:0E000000240E1F1EFF8181FF0FC00FE00F4076
:00000001FF
