:04000000FAEF0DF016
:1000080000C01EF001C01DF002C01CF003C01BF0B0
:1000180004C01AF005C019F006C018F008C017F09F
:1000280009C016F00AC015F0E1CF27F0E2CF28F09A
:10003800E9CF25F0EACF26F0F3CF23F0F4CF24F070
:10004800F5CF22F0F8CF1FF0F7CF20F0F6CF21F050
:10005800CBEC0BF0F29222C0F5FF1FC0F8FF20C0D6
:10006800F7FF21C0F6FF23C0F3FF24C0F4FF1EC032
:1000780000F01DC001F01CC002F01BC003F01AC044
:1000880004F019C005F018C006F017C008F016C033
:1000980009F015C00AF025C0E9FF26C0EAFF27C00D
:0800A800E1FF28C0E2FF110096
:1000B0004BC204F24CC205F24DC208F24EC209F224
:1000C000800E02014F11006E008000C007F2120086
:1000D000000E056E040E066E4BC203F0000E046E99
:1000E0000336043603900336043603904CC200F006
:1000F000000E016E003601360090005003260150BC
:10010000042203C001F004C002F00136019002365F
:1001100001360190023601C003F002C004F004323F
:100120000332049E04BC048E04320332049E04BCD9
:10013000048E03C000F004C001F0003600900136C8
:10014000003600900136055000260650012200C0FE
:1001500005F001C006F000C0E1FF01C0E2FFE69E2D
:1001600002014C51000A12E14BC200F0000E016E78
:10017000003600900136F30E0024E16E010E0120DE
:10018000E26E05C0E6FF06C0E6FF11D04BC200F0EC
:10019000000E016E0036009001360A0E0024E16E5A
:1001A000020E0120E26E05C0E6FF06C0E6FF05C0B4
:1001B000E1FF06C0E2FFE69C040E0524E16E000E9E
:0801C0000620E26EE68C12003D
:0E01C800800E02014B11006E00C007F2120003
:1001D6004BC204F24CC205F24DC206F24EC208F200
:1001E6004FC209F2800E02015011006E00C007F2E4
:0201F6001200F5
:1001F80020C401F01F0E01160150010A01E08BD046
:1002080004012451000A01E086D02151060A38E190
:100218002DD002010151010A12E1FD0E4B6F1E0E95
:100228004C6F000E4D6F120E4B27000E4C234D23C2
:10023800090E4E6F000E4F6F400E506FC8DF20D072
:1002480002010151010A0DE1260E4B6F1F0E4C6F82
:10025800000E4D6F210E4E6F000E4F6F400E506F07
:10026800B6DF0ED002014B6BABDF0AD0040123517D
:10027800210ACFE02351220AE3E02351230AF2E0C6
:1002880020C401F0600E0116050E006E005004E057
:100298000132019EFF0FFBD70150010A01E03BD05C
:1002A80027D039D038D00E0E02014B6F020E4C6F9A
:1002B800010E4D6F000E4E6F400E4F6FF5DE2BD0C6
:1002C80002014B6B7DDF23C40EF225D00201210E03
:1002D8004B6F020E4C6F010E4D6F000E4E6F4F6B41
:1002E800E3DE19D002014B6B6BDF22C421F213D07D
:1002F80004012151010AD5E02151090AD3E0215115
:10030800020AD1E021510A0ADBE02151030ADEE0AA
:0803180021510B0AE7E012007D
:1003200002014751000A12E046C200F0000E016EC1
:100330000036009001360A0E0024E96E020E0120FC
:10034000EA6EEECF04F0EECF05F011D046C200F019
:10035000000E016E003600900136F30E0024E96EA7
:10036000010E0120EA6EEECF04F0EECF05F0020E92
:100370000424E16E000E0520E26E48C2E6FF49C289
:10038000E6FF010E0424E16E000E0520E26E4AC273
:10039000E6FF04C0E9FF05C0EAFFEECF00F004C0AD
:1003A000E1FF05C0E2FF400E0014E66E04C0E9FF65
:1003B00005C0EAFFEECF00F004C0E1FF05C0E2FF98
:1003C000880E0010E66E4751000A1BE046C200F09E
:1003D000000E016E0036009001360A0E0024026EF7
:1003E000020E0120036E02C0E9FF03C0EAFF040E03
:1003F000EE18006E02C0E1FF03C0E2FF00C0E6FF9E
:100400001AD046C200F0000E016E00360090013690
:10041000F30E0024026E010E0120036E02C0E9FFFC
:1004200003C0EAFF040EEE18006E02C0E1FF03C035
:10043000E2FF00C0E6FF04C000F005C001F01200BA
:10044000700EE16E0F0EE26E02014651E126D8B049
:10045000E22A47C2E6FF47A504D046C24BF24C6BE6
:1004600037DE47A305D046C24BF2010E4C6F30DE9B
:02047000120078
:100472000101F05315E0010E0201466F1E0E476F97
:10048200DEDF010E466F476B14C248F215C249F215
:10049200400E4A6F44DF00C012F201C013F214D0C2
:1004A2000201010E466F1E0E476FC9DF010E466F35
:1004B200476B14C248F215C249F2400E4A6F2FDF51
:0A04C20000C012F201C013F2120094
:0A04CC000101F05301E092DE12007E
:1004D6000B6A0A6A096A00500402F4CF09F0F3CFE6
:1004E60008F001500502F4CF0BF0F3CF0AF00050EC
:1004F6000502F3500926F4500A22E86A0B2201503D
:100506000402F3500926F4500A22E86A0B2208C0B6
:1005160000F009C001F00AC002F00BC003F012009F
:1005260040C202F041C203F043C200F044C201F0EF
:10053600010E0201435F000E445B0050011009E00A
:1005460002C0E1FF03C0E2FF42C2E6FF024A032AFD
:04055600EBD71200CD
:10055A000CD08ADF3CD03BD0B4DF39D038D037D08A
:10056A0036D035D0000033D032D0000E0201411906
:10057A0002E1010E4019EDE0000E411902E1020EFE
:10058A004019E9E0000E411902E1030E4019E4E0C6
:10059A004151000A02E1730E4019E0E04151000A9C
:1005AA0002E1750E4019DBE04151000A02E1740EC6
:1005BA004019D6E041513F0A02E1FF0E4019D1E04D
:1005CA004151000A02E1720E4019CCE0CDD7010E6A
:0405DA00006E12009D
:1005DE000201078F710E406F0F0E416F426B010EBD
:1005EE00436F000E446F98DF230E406F020E416F73
:1005FE00426B010E436F000E446F8EDF22C401F278
:10060E000151000A03E1100E1F6F0FD0200E1F6F55
:10061E00010E406F000E416F010E426F020E436FCE
:0C062E00010E446F000E456F91DF1200BA
:10063A0004012051800AD8A47AD0C00E0201076FA3
:10064A006BD00201670E006E1F0E016E000E026E65
:10065A0000C004F201C005F202C006F2120E086FD1
:10066A00000E096F64D00201030E006E000E016EC7
:10067A0022C404F0000E056E29DF0F0E0024E96E75
:10068A00020E0120EA6EEECF04F2EECF05F2EECFB3
:10069A0006F2020E0425F66E000E0521F76E000E14
:1006AA000621F86E0900F5CF00F00900F5CF01F038
:1006BA0000C008F201C009F23AD004012251010136
:1006CA00F75D24E3030E006E000E016E22C404F0EF
:1006DA00000E056EFBDE160E0024E96E020E0120E6
:1006EA00EA6EEECF04F2EECF05F2EECF06F204C2C6
:1006FA00F6FF05C2F7FF06C2F8FF0900F5CF00F0C2
:10070A0000C008F2000E0201096F02D00201076B55
:10071A000ED00201076B0BD004012351010A91E0AC
:10072A002351020AA0E02351030AC7E0F2D71200BC
:10073A00000E0201095D02E1080E085D10E208C21E
:10074A0003F009C204F02D51000A03E1010E2D6FD6
:10075A0005D02D51010A02E1020E2D6F04D0080EB8
:10076A00036E000E046E0AC2E1FF0BC2E2FFE692BC
:10077A000AC2E1FF0BC2E2FFE6900AC2E9FF0BC21E
:10078A00EAFFEECF00F00AC2E1FF0BC2E2FF04501B
:10079A000010E66E010E0A25E16E000E0B21E26ED4
:1007AA0003C0E6FF0350085D006E04500959016E4C
:1007BA0000C008F201C009F2280E256F040E266F48
:1007CA0007B12FD0035004102BE004C2F6FF05C274
:1007DA00F7FF06C2F8FF0900F5CF00F025C2E1FFD6
:1007EA0026C2E2FF00C0E6FF254B262B010E042598
:1007FA00006E000E0521016E000E0621026E00C079
:10080A0004F201C005F202C006F2010E035C006E9A
:10081A00000E0458016E00C003F001C004F0D2D7E4
:10082A0024D00350041021E004C2E9FF05C2EAFF04
:10083A0025C2E1FF26C2E2FFEECFE6FF254B262BBB
:10084A00010E0425006E000E0521016E00C004F29F
:10085A0001C005F2010E035C006E000E0458016E21
:0C086A0000C003F001C004F0DCD7120055
:100876000401286B296B4AD00201078F04012881E5
:1008860002012251010A02E10401288354D0020127
:10089600078F51D00201078F040124BF16D024C44C
:1008A60003F00F0E031603C000F0000E016E0036B3
:1008B60000900136F30E0024E96E010E0120EA6E67
:1008C600EECF04F0EECF05F015D024C403F00F0EE2
:1008D600031603C000F0000E016E003600900136CC
:1008E6000A0E0024E96E020E0120EA6EEECF04F035
:1008F600EECF05F004C0E9FF05C0EAFFEECF01F038
:1009060001A403D00401010E286F15D020C401F004
:100916001F0E01160150000AAFE020C401F01F0EA1
:1009260001160150010AB3E020C401F01F0E0116A2
:100936000150020AAFE0020107AF07D0280E046F8C
:0C094600040E056F0781020E086F1200FE
:1009520004012251010A13E120C401F01F0E011605
:100962000150000A0CE10201078F04012151030A20
:1009720004E1010E0201226F02D00201226B040186
:100982002251000AD8A48DD020C401F01F0E0116F6
:100992000150020AD8A485D024C401F00F0E01161A
:1009A2000150000AD8B47DD00201078F040124BF90
:1009B20016D024C403F00F0E031603C000F0000E7D
:1009C200016E003600900136F30E0024E96E010E2E
:1009D2000120EA6EEECF04F0EECF05F015D024C46C
:1009E20003F00F0E031603C000F0000E016E003676
:1009F200009001360A0E0024E96E020E0120EA6E12
:100A0200EECF04F0EECF05F02151030A07E104C056
:100A1200E1FF05C0E2FF840EE66E43D024C400F07D
:100A22000F0E0016700E026E0F0E036E005002269D
:100A3200D8B0032A02C0E9FF03C0EAFFFE0EEE149B
:100A4200006EEECF01F0FF0E011602C0E1FF03C0FF
:100A5200E2FF00C0E6FF01C0E6FF24AF11D004C0F0
:100A6200E1FF05C0E2FFE66A040E0418006E00C052
:100A720004F004C0E1FF05C0E2FF400EE66E11D0B3
:100A820004C0E1FF05C0E2FF880EE66E040E041802
:100A9200006E00C004F004C0E1FF05C0E2FFC80E12
:040AA200E66E1200EA
:100AA600010E02012725E96E000E2821EA6EEECF1F
:100AB60000F000C002F0000E0101FC5D02E10250F0
:100AC600FB5D03E2FBC102F00AD00250FB5D006E43
:100AD600000EFC59016E00C0FBF101C0FCF1036A77
:100AE6000250035C1CE2280EE96E040EEA6E035007
:100AF600E926D8B0EA2AEECF00F0F8C1E1FFF9C145
:100B0600E2FF00C0E6FF010EF825006E000EF92197
:100B1600016E00C0F8F101C0F9F1032AE1D7000E19
:100B2600006EFC51005C02E1FB51000829E2010E57
:100B360002012925E16E000E2A21E26E080EE66EFC
:100B4600020E2925E16E000E2A21E26E280EE66EBF
:100B5600040EE66E27C2E9FF28C2EAFFEECF00F0D8
:100B660000BC07D029C2E1FF2AC2E2FFC80EE66E2A
:100B760006D029C2E1FF2AC2E2FF880EE66E1BD02C
:100B86000201010E2925E16E000E2A21E26E080EF1
:100B9600E66E020E2925E16E000E2A21E26E200E77
:100BA600E66E040EE66E29C2E1FF2AC2E2FF840E5B
:080BB600E66E0101FA9F120036
:100BBE006D98020107BF4CD00101FAAF29D0020E89
:100BCE000201246F010E0A25E16E000E0B21E26E6A
:100BDE00E66A0AC2E1FF0BC2E2FFC80EE66E010E24
:100BEE002925E16E000E2A21E26E080EE66E020E37
:100BFE002925E16E000E2A21E26E280EE66E040E05
:100C0E00E66E29C2E1FF2AC2E2FFC80EE66E1FD0D1
:100C1E000201010E2925E16E000E2A21E26E080E58
:100C2E00E66E020E2925E16E000E2A21E26E200EDE
:100C3E00E66E040EE66E29C2E1FF2AC2E2FF8C0EBA
:100C4E00E66E0AC2E1FF0BC2E2FF840EE66E83D0AF
:100C5E000101FABF80D0040120AF55D00201095125
:100C6E000401275D04E1020108510401265D04E23E
:100C7E0026C408F227C409F259DD010E246F010EB5
:100C8E002925E16E000E2A21E26E080EE66E020E96
:100C9E002925E16E000E2A21E26E200EE66E040E6C
:100CAE00E66E29C2E1FF2AC2E2FF800EE66E2C6BD1
:100CBE00010E2725E16E000E2821E26E080EE66E6B
:100CCE00020E2725E16E000E2821E26E200EE66E42
:100CDE00040EE66E27C2E1FF28C2E2FF840EE66E26
:100CEE00010E2C6F020E0A25E16E000E0B21E26E34
:100CFE00280EE66E040EE66E0AC2E1FF0BC2E2FF9C
:100D0E00C80EE66E28D00201020E246F010E0A25CF
:100D1E00E16E000E0B21E26EE66A0AC2E1FF0BC223
:100D2E00E2FFC80EE66E010E2925E16E000E2A21A5
:100D3E00E26E080EE66E020E2925E16E000E2A21E5
:100D4E00E26E280EE66E040EE66E29C2E1FF2AC29E
:080D5E00E2FFC80EE66E120070
:100D66000201246B0AC2E1FF0BC2E2FFE66A040E2F
:100D76000A19E16E0BC2E2FF000EE21AE66A0101F1
:080D8600FAAF01D0FA9F120040
:100D8E0020C401F0600E0116050E006E005004E046
:100D9E000132019EFF0FFBD70150000A01E069D01E
:100DAE0045D00201078F080E1F6F63D03FDC61D064
:100DBE000FDC5FD0010E0201046F020E056F07817A
:100DCE00010E086F078F55D04FDD53D0BBDD51D0CC
:100DDE00230E006E020E016E040124510026D8B0BF
:100DEE00012A00C004F201C005F202010781010EC2
:100DFE00086F078F3ED00201078F230EE16E020EA1
:100E0E00E26E04012451E126D8B0E22A22C4E6FFA4
:100E1E0030D0020E0201406F000E416F426B436BE9
:100E2E00446B456BADEC02F024D023D0040121516C
:100E3E00050AB7E02151060AB9E02151090AB8E0C6
:100E4E002151080AB7E02151000ABEE02151010AE2
:100E5E00BDE02151030ABAE021510A0AB9E021513D
:100E6E000B0AC9E02151070AD4E021510C0ADDE03A
:040E7E00DCD71200AB
:100E820002012451020A02E10DDE1FD06BDF0201D2
:100E92002C51000A19E1010E2925E16E000E2A21CA
:100EA200E26E080EE66E020E2925E16E000E2A2180
:100EB200E26E200EE66E040EE66E29C2E1FF2AC241
:0C0EC200E2FF8C0EE66E01D02C6B1200DB
:100ECE000AC2E9FF0BC2EAFFEECF00F0000E00BC33
:100EDE00010E02013F6F040E0A19006E00C00AF2E5
:100EEE001F51080A0AE122C46EFF6E50000803E289
:100EFE00100E1F6F02D0040E1F6F2451010A26E13F
:100F0E00020E0A25E16E000E0B21E26E280EE66E31
:100F1E00040EE66E0BDC2D51020A07E10AC2E1FF58
:100F2E000BC2E2FF840EE66E10D03F51000A07E1BD
:100F3E000AC2E1FF0BC2E2FFC80EE66E06D00AC27D
:100F4E00E1FF0BC2E2FF880EE66E01D005DF120054
:100F5E000AC2E9FF0BC2EAFFEECF00F000AE05D0E9
:100F6E000AC2E1FF0BC2E2FFE66A02012D6B246B9F
:100F7E00086B096B076B04DF030E0201406F000E56
:100F8E00416F426B436B446B456BADEC02F010DE70
:020F9E0012003F
:0E0FA000160E6F6E9F0E6B6E7B0E696E12004A
:100FAE0037C202F038C203F03AC200F03BC201F081
:100FBE00010E02013A5F000E3B5B0050011009E08A
:100FCE0002C0E1FF03C0E2FF39C2E6FF024A032A74
:040FDE00EBD712003B
:0A0FE200D08EA28AA08AF28E1200BF
:100FEC00670E006E1F0E016E000E026E0E0E0024B8
:100FFC00F66E000E0120F76E000E0220F86E09004E
:10100C00F5CF03F003C004F00F0E0024F66E000EB3
:10101C000120F76E000E0220F86E0900F5CF01F0EA
:10102C000150035C12E2670E006E1F0E016E000E83
:10103C00026E0F0E0024F66E000E0120F76E000EED
:10104C000220F86E0900F5CF04F0670E006E1F0E3B
:10105C00016E000E026E100E0024F66E000E0120C2
:10106C00F76E000E0220F86E0900F5CF01F001506A
:10107C00045C12E2670E006E1F0E016E000E026E13
:10108C00100E0024F66E000E0120F76E000E0220EA
:0E109C00F86E0900F5CF04F004C000F0120059
:1010AA0002013A6B3B6B3C6B020E3725F66E000E63
:1010BA003821F76E000E3921F86E0900F5CF05F0D8
:1010CA00030E3725F66E000E3821F76E000E392111
:1010DA00F86E0900F5CF00F000C003F0000E046EB0
:1010EA0003C001F0006A05500024066E000E0120BC
:1010FA00076E37C208F038C209F039C20AF0010E89
:10110A000824F66E000E0920F76E000E0A20F86E0B
:10111A000900F5CF01F00150020A1BE1060E08246E
:10112A00F66E000E0920F76E000E0A20F86E09000E
:10113A00F5CF01F001503A5D0CE2060E0824F66E76
:10114A00000E0920F76E000E0A20F86E0900F5CF8E
:10115A003AF2010E0824F66E000E0920F76E000E10
:10116A000A20F86E0900F5CF01F00150040A1BE1CC
:10117A00080E0824F66E000E0920F76E000E0A20EB
:10118A00F86E0900F5CF01F001503A5D0CE2080E45
:10119A000824F66E000E0920F76E000E0A20F86E7B
:1011AA000900F5CF3AF208C0F6FF09C0F7FF0AC0F6
:1011BA00F8FF0900F5CF00F000503B25016E000E44
:1011CA003C21026E01C03BF202C03CF20750025CB5
:1011DA0002E10650015C01E30FD008C0F6FF09C026
:1011EA00F7FF0AC0F8FF0900F5CF00F00050082603
:0E11FA00000E09220A2283D73AC200F012002A
:10120800FD0E02010F6F1E0E106F000E116F850E7E
:10121800166F1F0E176F000E186F790E196F1F0EBD
:101228001A6F000E1B6F470E1C6F1F0E1D6F000EEE
:041238001E6F120013
:10123C00000E0201381902E1000E371902E1016AB1
:10124C0009D037C2E9FF38C2EAFFEECF00F0016ADD
:0A125C0000BE012A01C000F01200DC
:1012660002013851000A12E037C200F0000E016E8A
:101276000036009001360A0E0024E96E020E0120A7
:10128600EA6EEECF04F0EECF05F011D037C200F0D3
:10129600000E016E003600900136F30E0024E96E52
:1012A600010E0120EA6EEECF04F0EECF05F0020E3D
:1012B6000424E16E000E0520E26E39C2E6FF3AC252
:1012C600E6FF010E0424E16E000E0520E26E3BC22D
:1012D600E6FF04C0E9FF05C0EAFFEECF00F004C058
:1012E600E1FF05C0E2FF400E0014E66E04C0E9FF10
:1012F60005C0EAFFEECF00F004C0E1FF05C0E2FF43
:10130600880E0010E66E3851000A1BE037C200F066
:10131600000E016E0036009001360A0E0024026EA1
:10132600020E0120036E02C0E9FF03C0EAFF040EAD
:10133600EE18006E02C0E1FF03C0E2FF00C0E6FF48
:101346001AD037C200F0000E016E0036009001364A
:10135600F30E0024026E010E0120036E02C0E9FFA7
:1013660003C0EAFF040EEE18006E02C0E1FF03C0E0
:10137600E2FF00C0E6FF04C000F005C001F0120065
:10138600200E02011F5D03E36DB201D002D0006A98
:1013960023D012C237F213C238F24DDF00521BE1DE
:1013A600010E1225E96E000E1321EA6EEECF00F053
:1013B60000C036F235C237F2386B32C239F233C268
:1013C6003AF234C23BF24CDF00C012F201C013F213
:0A13D60036C200F001D0006A1200D8
:0413E000A19A1200BC
:1013E40003DE00C032F2FD0E0201376F1E0E386FAD
:1013F400000E396F58DE00C033F23251005C03E254
:0C14040032C200F002D033C200F012002F
:1014100002011F51000A0AE16D6A696AC1DDE1DD5E
:0E1420006DB602D06D86FCD7010E1F6F120054
:10142E00ECDE126B136B026B036B6A6A686AB1DDDA
:10143E006D8C6E6A710E376F0F0E386F396B010E31
:10144E003A6F000E3B6FACDD6D9C326B080E325D59
:10145E0016E232C200F0000E016E00360090013628
:10146E00003600900136000E0024E16E040E0120BD
:10147E00E26EE66AE66AE66AE66A322BE7D7160E8F
:10148E00706E68A603D0F70E6816FBD7076B0101C6
:10149E00FA6BFB6BFC6B6D98080E02010A6F040E63
:0814AE000B6F016B1F6B1200B4
:1014B6006984EF0E68166D82750E0201406F000E8C
:1014C600416F426B436B446B456BADEC02F012000F
:1014D60070A019D027C2E9FF28C2EAFFEECF01F0BB
:1014E6000150800A0FE10AC2E9FF0BC2EAFFEECF04
:1014F60001F00150840A06E127C2E1FF28C2E2FF9B
:0C1506008C0EE66E7090DF0E681612006E
:10151200FD0E02012B15016E026AFF0E0216000E6D
:10152200021802E1000E01186BE17E0E2B15016E0E
:1015320001C003F00332039E03C000F0000E016EEF
:10154200003600900136003600900136000E00246D
:10155200026E040E0120036E02C027F203C028F2BD
:1015620002C029F203C02AF2040E2919006E00C03B
:1015720029F202C0E9FF03C0EAFFEECF00F000C08B
:1015820001F03C0E01160132019E0132019E015012
:101592000D0A34E1020E2725E96E000E2821EA6EBB
:1015A200EECF01F0EECF02F00250040A02E1280E63
:1015B200011822E1020E2725E16E000E2821E26EBB
:1015C200200EE66E040EE66E3E6B080E3E5D14E2E1
:1015D200200EE16E040EE26E3E51E126D8B0E22A00
:1015E200280EE96E040EEA6E3E51E926D8B0EA2AC8
:1015F200EECFE6FF3E2BE9D7B1DC01D041DC0ED0C5
:10160200FD0E02012B15016E026AFF0E0216000E7C
:0E161200021802E1040E011801E158DC12007A
:10162000740E0201406F000E416F426B436B446BBE
:10163000456BADEC02F06D92699468A403D0FB0E8B
:061640006816FBD7120042
:10164600E0DD126B136B026B036B6A6A686AA5DCDA
:101656006D8C6E6A710E406F0F0E416F426B010EFC
:10166600436F000E446F93EC02F06D9C3E6B080EC8
:101676003E5D16E23EC200F0000E016E003600909E
:101686000136003600900136000E0024E16E040E8D
:101696000120E26EE66AE66AE66AE66A3E2BE7D76C
:1016A600160E706E68A603D0F70E6816FBD7076B8A
:1016B6000101FA6BFB6BFC6B6D98080E02010A6F59
:0A16C600040E0B6F016B1F6B120086
:1016D0000900F5CFE6FF0006FBE10106F9E1120083
:1016E0000201306B30510A0A02E0302BFBD730C2C6
:0416F00000F01200F4
:1016F40077DE00C0F7F1010E0101F06F2EC214F283
:101704002FC215F230C2F1F131C2F2F18EDE010EB8
:0C171400016E0150010A01E179DE1200B3
:101720000F0EC16E926A010E936E946A956AFF0E57
:0C173000966E806A816A826A836A1200E9
:0E173C00F28ED09EF19EF18CF288F28A12009D
:10174A00026A036A800E0318006E800E005C02E1D2
:10175A00070E025C18E2D40E0224E16E010E032089
:10176A00E26E02500101BE25006E0350BF21016ED8
:10177A00810E0024E96E000E0120EA6EEECFE6FF2C
:0C178A00024A032ADFD70201208512006A
:1017960002011F51010A07E16DBA05D0686A698026
:1017A6006988020E1F6F68A405D069A403D0FB0EDA
:1017B600681633DF6DA202D010DE78D068A018D08C
:1017C60069A016D03DDF040E1F6F200E0401026FC4
:1017D600040E036F080E016F000E0015006E00C0A8
:1017E60000F48C0E0011006E00C000F4FE0E6816A8
:1017F60068A805D069A803D05BDEEF0E681668AC52
:1018060011D069AC0FD0730E0201406F000E416F0C
:10181600426B436B010E446F000E456FADEC02F058
:10182600BF0E681668AA03D069AA01D051DE68A265
:1018360010D069A20ED0FF0E0201406F3F0E416F1D
:10184600426B436B010E446F000E456FADEC02F028
:101856006A6A040E02011F5D02E2BFDD27D069A697
:1018660024D03D6B040E3D5D20E268A61AD06CCFF5
:101876002BF2F70E6816780E2B15016E0150000A32
:1018860002E144DE0DD0720E0201406F000E416F80
:101896002B0E426F020E436F446B456BADEC02F0AC
:0E18A60001D003D002013D2BDDD797DD1200EB
:1018B40014C232F215C233F2400E0201346F010E2B
:0618C400356F5FDD12002C
:1018CA0002012E6B010E2F6F306B209520A3C2D020
:1018DA002093D40EE96E010EEA6E0101EE51E9265B
:1018EA00D8B0EA2AEECF02F0EFC101F002C000F050
:1018FA00015004E00032009EFF0FFBD7010E0016D4
:10190A0000B003D00201209702D002012087010112
:10191A00ED5102012E1907E0120E0101ED5D03E2FD
:10192A0002012E2BF4D70101EE5102012F1907E013
:10193A00080E0101EE5D03E202012F2BF4D702012A
:10194A002FC202F00236029002C030F22EC200F01C
:10195A000036009000360090003600900036009065
:10196A00100E00160050021202C030F2DB0EE96EB1
:10197A00010EEA6E2E51E926D8B0EA2AEECF01F01E
:10198A00050E006E01C030F2005004E0303730918D
:10199A00FF0FFBD70250301320B704D08396BF0E37
:1019AA00301702D08386308D30C281FF20A102D049
:1019BA00839801D08388180E8314016E070E0101E3
:1019CA00EF15006E00500110836E000180516D19F1
:1019DA0003E10201209302D002012083806A070EEC
:1019EA000C6E7D0E0D6E0D2EFED70C2EFCD76E0ED4
:1019FA00E96E000EEA6E0101ED51E926D8B0EA2A35
:101A0A00EECF80FF070E0C6E7D0E0D6E0D2EFED7EB
:101A1A000C2EFCD7806AEF2BEF51080A1BE1EE2B44
:101A2A00EF6BEE51070A16E1EE6B02012095070EE5
:101A3A000101BE27000EBF23ED2BC04BC12B0201B3
:101A4A0020830101ED51120A05E102012071020E03
:061A5A000101ED6F120016
:101A600002012E6B010E2F6F306B209520A3C1D089
:101A70002093D40EE96E010EEA6E0101EE51E926C3
:101A8000D8B0EA2AEECF02F0EFC101F002C000F0B8
:101A9000015004E00032009EFF0FFBD7010E00163C
:101AA00000B003D00201209702D00201208701017B
:101AB000ED5102012E1907E0120E0101ED5D03E266
:101AC00002012E2BF4D70101EE5102012F1907E07C
:101AD000080E0101EE5D03E202012F2BF4D7020193
:101AE0002FC202F00236029002C030F22EC200F085
:101AF00000360090003600900036009000360090CE
:101B0000100E00160050021202C030F2DB0EE96E19
:101B1000010EEA6E2E51E926D8B0EA2AEECF01F086
:101B2000050E006E01C030F2005004E030373091F5
:101B3000FF0FFBD70250301320A704D08396BF0EAF
:101B4000301702D08386308D30C281FF20A102D0B1
:101B5000839801D08388000180516D1903E102014F
:101B6000209302D002012083180E8314016E070E09
:101B70000101EF15006E00500110836E806A070EA0
:101B80000C6E7D0E0D6E0D2EFED70C2EFCD76E0E3C
:101B9000E96E000EEA6EED51E926D8B0EA2AEECFE2
:101BA00080FF070E0C6E7D0E0D6E0D2EFED70C2ED7
:101BB000FCD7806AEF2BEF51080A1BE1EE2BEF6B8D
:101BC000EE51070A16E1EE6B02012095070E0101A6
:101BD000BE27000EBF23ED2BC04BC12B020120837B
:101BE0000101ED51110A05E102012071020E01010E
:041BF000ED6F120083
:101BF400C5EC0FF0020120952083209720918EDD03
:101C04009BDD000E2E6F050E2F6F400E306F050EFC
:101C1400316F6EDD829C4CDE00C06CF00052D8B493
:101C240085D0828C00C52BF001C52CF002C529F0AB
:101C340003C52AF0552A000E0101C15D02E1555089
:101C4400C05DD8B073D02950610A12E1560EC02588
:101C5400E96E000EC121EA6E300EEE5C0001806F69
:101C6400560E02012E6F000E2F6F38DD00C06DF08E
:101C74002950620A13E12D0E0101C025E96E000E00
:101C8400C121EA6E300EEE5C0001806F2D0E020160
:101C94002E6F000E2F6F22DD00C06DF02950630AF5
:101CA40013E1490E0101C025E96E000EC121EA6E5F
:101CB400300EEE5C0001806F490E02012E6F000EA3
:101CC4002F6F0CDD00C06DF02A507A0A14E1C20EA9
:101CD4000101C025E96E010EC121EA6E300EEE5CF1
:101CE4000001806FC20E02012E6F010E2F6FF6DC11
:101CF40000C06DF006D055C06DF0300E2B5C0001B5
:101D0400806F0001070E8003F3CFBEF1F4CFBFF163
:101D14001ADD20A504D02C506E0A01E19FDE0201D9
:101D240020A504D02C50730A01E1CDDD828E72D738
:021D3400FFD7D7
:101F8A0010EE29F0C70E006E020E016E360EF66EC6
:0E1F9A001D0EF76E000EF86E68EC0BF01200D4
:011D360000AC
:011D370000AB
:011D380000AA
:011D390000A9
:101D3A004255454E415B53554552545B454E5B4CAB
:0C1D4A004F535B5041524349414C4553FC
:0C1D56004841595B475541524449415CEB
:011D62000080
:101D6300464143554C5441445B44455B4155544FB4
:061D73004D4154494341BB
:011D79000069
:011D7A000068
:101D7B0001010202020204040404080808081010FE
:021D8B00101036
:011D8D000055
:101D8E00007CFE82FE7C000040FEFE00000000464D
:101D9E00CE9AF262000044C692FE6C00001878FEE5
:101DAE00FE080000F4F6A2BE9C00007CFE92DE4C03
:101DBE000000808EBEF0C000006CFE92FE6C000033
:101DCE0064F692FE7C0000900000000000000216F7
:101DDE00000000000008142200000000141414007B
:101DEE0000000022140800000000408A90C000008D
:101DFE00F08499A5B98588000638C8C8380600FE53
:101E0E00929292FE6C00FE82828282C600FE8282D6
:101E1E0082FE7C00FEFE9292928200FEFE909090D8
:101E2E0080007CFE829296DE00FEFE1010FEFE000A
:101E3E000000FEFE0000000C0E02FEFC0000FEFE86
:101E4E00386CC68200FEFE0202020000FEF03C0C60
:101E5E003CF000FEFEF03C0EFE007CFE828282FE16
:101E6E0000FEFE9090F06000FE828A8EFE7C00FEE8
:101E7E00FE909090FE0064F69292DE4C008080FE02
:101E8E00FE808000FCFE0202FEFC00C0F83E3EF822
:101E9E00C000C03806180638C000C6EE3838EEC688
:101EAE0000C0E03E3EE0C000868E9AB2E2C2000064
:0D1EBE00000000000000FAFA000000000023
:021ECB00000015
:021ECD00000013
:101ECF005B5B5B5B5B5B5B5B5B5B5B5B5B5B5B5B53
:021EDF005B5B4B
:071EE10000000000000000FA
:101EE80000000000010100000101000001010000E4
:021EF8000101E6
:011EFA0002E5
:011EFB0000E6
:011EFC0000E5
:101EFD0009022900010100803209040000020300DB
:101F0D000000092101010001222100070581034084
:091F1D0000010705010340000169
:101F26000600FF0901A10119012940150026FF003D
:101F3600750895408102190129407508954091025E
:011F4600C0DA
:101F47002003550053004200200048004900440088
:101F5700200046004F005200200046004400440085
:101F67001201000200000008341201000100010202
:021F7700000167
:0C1F79000C03430055004A0041004500E5
:041F85000403090444
:020000040030CA
:0E000000000C1F1EFF8381FF0FC00FE00F409A
:00000001FF
